S016000054696D6572312D41544D333238502E73726563E0
S11300000C9434000C9446000C9446000C94460066
S11300100C9446000C9446000C9446000C94460044
S11300200C9446000C9446000C9446000C946C000E
S11300300C9446000C9446000C9446000C94460024
S11300400C9446000C9446000C9446000C94460014
S11300500C9446000C9446000C9446000C94460004
S11300600C9446000C94460011241FBECFEFD8E038
S1130070DEBFCDBF21E0A0E0B1E001C01D92A230FF
S1130080B207E1F70E9460000C9498000C94000001
S113009081E792E090938900809388001092850014
S11300A01092840082E080936F008CE08093810042
S11300B0089584B1806284B985B1806285B9089558
S11300C00E94590078940E94480089E190E090933E
S11300D0010180930001FFCF1F920F920FB60F9280
S11300E011248F939F9380910001909101010197B6
S11300F0909301018093000180910001909101018E
S1130100892B79F489E190E09093010180930001B7
S11301102D9B04C085B18F7D85B903C085B18062F4
S113012085B99F918F910F900FBE0F901F901895D6
S1070130F894FFCF6D
S9030000FC
