:100000000C9434000C9446000C9446000C9446006A
:100010000C9446000C9446000C9446000C94460048
:100020000C9446000C9446000C9446000C94590025
:100030000C9446000C9446000C9446000C94460028
:100040000C9446000C9446000C9446000C94460018
:100050000C9446000C9446000C9446000C94460008
:100060000C9446000C94460011241FBECFEFD8E03C
:10007000DEBFCDBF21E0A0E0B1E001C01D92A03005
:10008000B207E1F70E9472000C9478000C94000013
:1000900081E792E090938900809388001092850018
:1000A0001092840082E080936F008CE08093810046
:1000B00008951F920F920FB60F9211248F939F9362
:1000C00095B180E2892785B99F918F910F900FBEDE
:1000D0000F901F90189584B1806284B985B18062B9
:1000E00085B908950E946B0078940E944800FFCF64
:0400F000F894FFCFB2
:00000001FF
